:100000000C9462000C948A000C948A000C948A0070
:100010000C948A000C948A000C948A000C948A0038
:100020000C948A000C948A000C948A000C948A0028
:100030000C948A000C948A000C948A000C948A0018
:100040000C94BD030C948A000C948A000C948A00D2
:100050000C948A000C948A000C948A000C948A00F8
:100060000C94FC010C948A0000000000240027007E
:100070002A0000000000250028002B0000000000DE
:1000800023002600290004040404040404040202DA
:100090000202020203030303030301020408102007
:1000A0004080010204081020010204081020000012
:1000B0000007000201000003040600000000000029
:1000C0000000F70011241FBECFEFD4E0DEBFCDBF8C
:1000D00011E0A0E0B1E0E8E5FAE002C005900D9281
:1000E000A631B107D9F711E0A6E1B1E001C01D9238
:1000F000A03EB107E1F710E0C4ECD0E004C02297C5
:10010000FE010E942605C23CD107C9F70E94AC033C
:100110000C942A050C9400000F931F930DE511E039
:10012000C80164E070E00E94BD00E0915D01F091C3
:100130005E010280F381E02DC80160E071E045E0DE
:1001400050E00995C801609116010E943901C8016B
:100150000E947D01809116018F5F8093160164EFEC
:1001600071E080E090E00E9405041F910F910895D6
:100170008DE591E00E948101089581E080935C010A
:100180006093390110925A0110925B0108952091F9
:10019000380130E080913701281B3109C9010895E9
:1001A0004091370180913801481718F02FEF3FEF49
:1001B0000AC0E42FF0E0E95EFE4F8081282F30E096
:1001C0004F5F40933701C9010895E0913701809155
:1001D0003801E81718F0EFEFFFEF06C0F0E0E95E36
:1001E000FE4F8081E82FF0E0CF010895089510922E
:1001F000600110925F0188EE93E0A0E0B0E0809390
:10020000610190936201A0936301B09364018AE05D
:1002100091E090935E0180935D010895A0E0B0E0CD
:10022000E4E1F1E00C94F7047C016B018A01809118
:100230005C018823A1F0C0E0D0E00DC0D701ED91B2
:10024000FC91D601AC0FBD1F0190F081E02DC701DC
:100250006C9109952196C017D10780F304C0CB019A
:10026000642F0E94E101C801CDB7DEB7E8E00C942D
:100270001305A1E0B0E0EFE3F1E00C94FD04FC0114
:10028000698380915C018823C9F080915B01803291
:1002900038F081E090E09383828320E030E015C065
:1002A00080915A01E82FF0E0E65CFE4F998190833F
:1002B0008F5F80935A0180935B0105C0CE01019648
:1002C00061E00E94E10121E030E0C9012196E2E015
:1002D0000C9419050F93062F809139016AE371E0A0
:1002E00040915B0121E00E948C0110925A01109212
:1002F0005B0110925C010F91089561E00E946A0118
:100300000895109237011092380110925A011092FC
:100310005B010E948D0308950F931F93582F122F96
:10032000413210F081E04AC0809169018823E1F7F1
:1003300082E08093690100936B018FEF8093D60177
:100340001092910140939201A1E7B1E0FB0102C03C
:1003500081918D938E2F861B8417D0F310926A01A2
:1003600080916A01550F852B80936A0180916C0101
:10037000813041F410926C0180916A018093BB003E
:1003800085EC01C085EE8093BC00112321F08091A3
:1003900069018230E1F38091D6018F3F11F480E052
:1003A0000DC08091D601803211F482E007C08091A7
:1003B000D601803311F084E001C083E01F910F91DA
:1003C0000895482F613210F081E00895809169010D
:1003D000843011F082E008956093B401A3E9B1E0A4
:1003E000842F9C01F90102C081918D938E2F841B73
:1003F0008617D0F380E008951F920F920FB60F92E8
:1004000011242F933F934F935F936F937F938F9319
:100410009F93AF93BF93EF93FF938091B90090E0C8
:10042000887F90708036910509F4F2C0813691057D
:10043000CCF58832910509F47BC089329105B4F47A
:100440008031910509F46FC0813191053CF400972A
:1004500009F447C1089709F04FC165C0883191057B
:1004600009F466C0809709F047C182C080349105C5
:1004700009F4A4C08134910544F48033910509F452
:1004800082C0C89709F038C189C08035910509F448
:1004900089C08835910509F496C08834910509F022
:1004A0002BC1AEC08839910509F413C18939910572
:1004B000ECF48837910509F4ABC0893791054CF409
:1004C0008836910509F4A4C08037910509F014C15C
:1004D0009FC08838910509F4FCC08039910509F462
:1004E0009DC08038910509F007C198C0803B9105F7
:1004F00009F4C6C0813B91054CF4803A910509F49A
:100500009FC0883A910509F0F7C0BAC0803C9105B8
:1005100009F4E3C0883C910509F4DFC0883B9105EC
:1005200009F0EAC0C2C080916A018093BB00CFC0CD
:100530009091910180919201981768F490919101A6
:10054000E92FF0E0EF58FE4F80818093BB009F5F62
:1005500090939101BCC080916B01882309F44BC03A
:1005600085ED8093BC008091BC0084FDFCCFC2C0AF
:1005700080E28093D60185ED8093BC008091BC0021
:1005800084FDFCCFB7C080E38093D60185ED8093D6
:10059000BC008091BC0084FDFCCFACC088E380939C
:1005A000D6019BC0809191019091BB00E82FF0E0B3
:1005B000EF58FE4F90838F5F80939101909191014E
:1005C0008091920182C0809191019091BB00E82FAF
:1005D000F0E0EF58FE4F90838F5F80939101809100
:1005E0006B01882341F085ED8093BC008091BC00B5
:1005F00084FDFCCF7FC081E080936C0184EA6EC0F3
:1006000085ED8093BC008091BC0084FDFCCF72C05E
:1006100083E0809369011092D50159C08091D50182
:10062000803208F056C08091D5019091BB00E82F30
:10063000F0E0EB54FE4F90838F5F8093D50147C06D
:100640008091D501803230F4E091D501F0E0EB5497
:10065000FE4F108285ED8093BC008091BC0084FD2C
:10066000FCCF109269016091D501E0916F01F0918A
:10067000700185EB91E070E009951092D5012DC0D5
:1006800084E0809369011092B3011092B401E0916B
:100690006D01F0916E0109958091B401882329F4D0
:1006A00081E08093B401109293019091B301E92FFE
:1006B000F0E0ED56FE4F80818093BB009F5F9093EA
:1006C000B3019091B3018091B401981710F485ECB7
:1006D00001C085E88093BC000FC085EC8093BC000E
:1006E00009C01092D60185ED8093BC008091BC00BA
:1006F00084FDFCCF10926901FF91EF91BF91AF9102
:100700009F918F917F916F915F914F913F912F9129
:100710000F900FBE0F901F9018951092690181E005
:1007200080936B0110926C0182E161E00E94990458
:1007300083E161E00E949904E9EBF0E080818E7F23
:10074000808380818D7F808388E48093B80085E4F6
:100750008093BC0008950895CF93DF930E945E04B8
:100760000E94AB030E94B800C0E0D0E00E948C0061
:100770002097E1F30E940000F9CF1F920F920FB66D
:100780000F9211242F933F938F939F93AF93BF9317
:100790008091DB019091DC01A091DD01B091DE013F
:1007A0003091DF010196A11DB11D232F2D5F2D3743
:1007B00020F02D570196A11DB11D2093DF018093DC
:1007C000DB019093DC01A093DD01B093DE01809109
:1007D000D7019091D801A091D901B091DA01019689
:1007E000A11DB11D8093D7019093D801A093D90189
:1007F000B093DA01BF91AF919F918F913F912F916B
:100800000F900FBE0F901F9018959B01AC017FB702
:10081000F8948091D7019091D801A091D901B0911D
:10082000DA0166B5A89B05C06F3F19F00196A11DBE
:10083000B11D7FBFBA2FA92F982F8827860F911D32
:10084000A11DB11D62E0880F991FAA1FBB1F6A95E9
:10085000D1F7BC012DC0FFB7F8948091D7019091DA
:10086000D801A091D901B091DA01E6B5A89B05C0E5
:10087000EF3F19F00196A11DB11DFFBFBA2FA92F9F
:10088000982F88278E0F911DA11DB11DE2E0880FC2
:10089000991FAA1FBB1FEA95D1F7861B970B885E8D
:1008A0009340C8F2215030404040504068517C4F46
:1008B000211531054105510571F60895789484B5E7
:1008C000826084BD84B5816084BD85B5826085BD4C
:1008D00085B5816085BDEEE6F0E080818160808332
:1008E000E1E8F0E010828081826080838081816015
:1008F0008083E0E8F0E0808181608083E1EBF0E0DC
:10090000808184608083E0EBF0E08081816080837F
:10091000EAE7F0E080818460808380818260808368
:100920008081816080838081806880831092C10093
:100930000895482F50E0CA0182559F4FFC01249131
:10094000CA0186569F4FFC0194914A575F4FFA01A6
:100950003491332309F440C0222351F1233071F044
:10096000243028F42130A1F0223011F514C02630B3
:10097000B1F02730C1F02430D9F404C08091800058
:100980008F7703C0809180008F7D8093800010C09E
:1009900084B58F7702C084B58F7D84BD09C08091F6
:1009A000B0008F7703C08091B0008F7D8093B0003E
:1009B000E32FF0E0EE0FFF1FEE58FF4FA591B4912B
:1009C0002FB7F894662321F48C919095892302C067
:1009D0008C91892B8C932FBF08952F923F924F9229
:1009E0005F926F927F928F929F92AF92BF92CF92BF
:1009F000DF92EF92FF920F931F93CF93DF93CDB7C8
:100A0000DEB7CA1BDB0B0FB6F894DEBF0FBECDBF3F
:100A100009942A88398848885F846E847D848C8410
:100A20009B84AA84B984C884DF80EE80FD800C8119
:100A30001B81AA81B981CE0FD11D0FB6F894DEBFFC
:100A40000FBECDBFED010895EE0FFF1F0590F4918D
:080A5000E02D0994F894FFCF9A
:100A58007820697320000000000039010E01C700EA
:060A6800D000E500F600DD
:00000001FF
