:100000000C9427010C9454010C9454010C94540149
:100010000C9454010C9454010C9454010C9454010C
:100020000C9454010C9454010C9454010C945401FC
:100030000C9454010C9454010C9454010C945401EC
:100040000C9454010C9454010C9454010C945401DC
:100050000C9454010C9454010C9454010C946B0AAC
:100060000C9454010C9409020C9461030C945401F7
:100070000C9454010C9454010C9454010C945401AC
:100080000C9454010C9454010C9454010C9454019C
:100090000C9449020C94A0030C9454010C94540148
:1000A0000C9454010C9454010C9454010C9454017C
:1000B0000C9454010C9454010C9454010C9454016C
:1000C0000C9454010C9454010C9454010C94890226
:1000D0000C94DF030C9454010C94C9020C941E047C
:1000E0000C945401430B480B4D0B570BD00B610B79
:1000F000690B710B7B0B850B8F0B9E0BA80BD00B29
:10010000B20BBC0BC60B320C350C280C2C0C6E0C35
:10011000390C3D0C430C470C4B0C510C550C590C35
:100120006E0C5F0C630C690C00002100240027009A
:100130002A002D00300033000101000004010701F6
:100140000A0100002200250028002B002E003100AB
:10015000340002010000050108010B01000020002D
:100160002300260029002C002F003200000100008F
:10017000030106010901050505050705080808082A
:10018000020202020A0A080804040404010101012F
:10019000010101010303030303030303040707072A
:1001A0000C0C0C0C0C0C0C0C0202020206060606CF
:1001B000060606060B0B0B0B0B0B0B0B010210209C
:1001C000200808102040102040800201020108048D
:1001D0000201010204081020408080402010080421
:1001E000020180040201804020100804020108047A
:1001F00002010102040810204080010204081020BE
:1002000040800000090A02080B0C0D0706030401D8
:1002100000000000000000000000000000000000DE
:1002200000000000000000000000000000001110AD
:100230000F000000000000000000000000000000AF
:10024000000000000000000056019105D3061124B3
:100250001FBECFEFD1E2DEBFCDBF00E00CBF12E08A
:10026000A0E0B2E0E2E9FAE100E00BBF02C00790D3
:100270000D92AE31B107D9F71BBE14E0AEE1B2E08A
:1002800001C01D92AF3DB107E1F712E0CEE4D2E02C
:1002900004C02297FE010E942F0DC834D107C9F770
:1002A0000E94570A0C94470D0C9400000F938EE1A6
:1002B00092E060E040E020E000E00E94C7060F917D
:1002C00008958DE061E00E94DE0B84E494E040E854
:1002D00055E260E070E00E945D040895A6E0B0E0A1
:1002E000E4E7F1E00C94060D49835A836B837C8329
:1002F0008D839E8369817A818DE00E94230B6B81BF
:100300007C818CE00E94230B6D817E818BE00E94BA
:10031000230B2696E2E00C94220D2F923F924F92EF
:100320005F926F927F928F929F92AF92BF92CF9285
:10033000DF92EF92FF920F931F9384E494E00E9468
:10034000E404181619060CF052C084E494E00E94EC
:100350001D097B018C01062F2F2C84E494E00E9460
:100360001D093B014C01162F372C84E494E00E94B8
:100370001D095B016C01562E4B2C84E494E0B701FF
:100380004AE050E00E943D0884E494E060E072E0BE
:100390000E946F0884E494E0B3014AE050E00E94B8
:1003A0003D0884E494E060E072E00E946F0884E419
:1003B00094E0B5014AE050E00E945008EF2821F493
:1003C000672811F4AB2899F086E090E00E94680A53
:1003D000FC01402F00832182612F128333825482DB
:1003E0004582522D732D852D942D0E946E011F91F3
:1003F0000F91FF90EF90DF90CF90BF90AF909F90C4
:100400008F907F906F905F904F903F902F900895C6
:1004100008951F920F920FB60F920BB60F921124F0
:100420002F933F934F938F939F93EF93FF938091DD
:10043000C00082FD1DC04091C60020916402309131
:1004400065022F5F3F4F2F7330708091660290914D
:1004500067022817390771F0E0916402F091650294
:10046000EC5DFD4F4083309365022093640202C02F
:100470008091C600FF91EF919F918F914F913F9195
:100480002F910F900BBE0F900FBE0F901F901895DD
:1004900008951F920F920FB60F920BB60F92112470
:1004A0002F933F934F938F939F93EF93FF9380915D
:1004B000C80082FD1DC04091CE002091EC02309119
:1004C000ED022F5F3F4F2F7330708091EE029091BD
:1004D000EF022817390771F0E091EC02F091ED027C
:1004E000E455FD4F40833093ED022093EC0202C0AF
:1004F0008091CE00FF91EF919F918F914F913F910D
:100500002F910F900BBE0F900FBE0F901F9018955C
:1005100008951F920F920FB60F920BB60F921124EF
:100520002F933F934F938F939F93EF93FF938091DC
:10053000D00082FD1DC04091D600209174033091FF
:1005400075032F5F3F4F2F7330708091760390912A
:1005500077032817390771F0E0917403F091750360
:10056000EC5CFC4F4083309375032093740302C00E
:100570008091D600FF91EF919F918F914F913F9184
:100580002F910F900BBE0F900FBE0F901F901895DC
:1005900008951F920F920FB60F920BB60F9211246F
:1005A0002F933F934F938F939F93EF93FF9380915C
:1005B000300182FD1DC0409136012091FC03309135
:1005C000FD032F5F3F4F2F7330708091FE0390919A
:1005D000FF032817390771F0E091FC03F091FD0348
:1005E000E454FC4F40833093FD032093FC0302C08E
:1005F00080913601FF91EF919F918F914F913F91A3
:100600002F910F900BBE0F900FBE0F901F9018955B
:10061000E0915004F0915104E05CFF4F8191919181
:1006200020813181805C9F4F821B930B60E470E0DE
:100630000E94C10C892B11F00E940802E091720403
:10064000F0917304E05CFF4F8191919120813181A1
:10065000805C9F4F821B930B60E470E00E94C10C92
:10066000892B11F00E944802E0919404F0919504C6
:10067000E05CFF4F8191919120813181805C9F4F9F
:10068000821B930B60E470E00E94C10C892B11F077
:100690000E948802E091B604F091B704E05CFF4F3D
:1006A0008191919120813181805C9F4F821B930BBE
:1006B00060E470E00E94C10C892B11F00E94C80216
:1006C00008951F920F920FB60F920BB60F9211243E
:1006D0002F933F938F939F93EF93FF932091A802C3
:1006E0003091A9028091AA029091AB022817390794
:1006F00031F48091C1008F7D8093C10014C0E091DE
:10070000AA02F091AB02E859FD4F20818091AA0224
:100710009091AB0201968F7390709093AB0280938F
:10072000AA022093C600FF91EF919F918F913F9174
:100730002F910F900BBE0F900FBE0F901F9018952A
:100740001F920F920FB60F920BB60F9211242F9398
:100750003F938F939F93EF93FF93209130033091BA
:10076000310380913203909133032817390731F414
:100770008091C9008F7D8093C90014C0E09132033D
:10078000F0913303E051FD4F20818091320390912D
:10079000330301968F7390709093330380933203E9
:1007A0002093CE00FF91EF919F918F913F912F91D8
:1007B0000F900BBE0F900FBE0F901F9018951F92B9
:1007C0000F920FB60F920BB60F9211242F933F93F7
:1007D0008F939F93EF93FF932091B8033091B903C8
:1007E0008091BA039091BB032817390731F48091A7
:1007F000D1008F7D8093D10014C0E091BA03F091B5
:10080000BB03E858FC4F20818091BA039091BB0351
:1008100001968F7390709093BB038093BA032093DB
:10082000D600FF91EF919F918F913F912F910F9063
:100830000BBE0F900FBE0F901F9018951F920F9236
:100840000FB60F920BB60F9211242F933F938F93F5
:100850009F93EF93FF932091400430914104809146
:100860004204909143042817390731F480913101F3
:100870008F7D8093310114C0E0914204F0914304D4
:10088000E050FC4F208180914204909143040196F6
:100890008F739070909343048093420420933601A9
:1008A000FF91EF919F918F913F912F910F900BBEF0
:1008B0000F900FBE0F901F901895AF92BF92DF92CE
:1008C000EF92FF920F931F93CF93DF93EC017A0186
:1008D0008B01DD24403081EE580780E0680780E01E
:1008E000780711F0DD24D39491E0A92EB12CEC8986
:1008F000FD89DD2069F0C50108A002C0880F991F9D
:100900000A94E2F7808360E079E08DE390E005C02F
:10091000108260E874E88EE190E0A80197010E94DF
:10092000D40C215030404040504056954795379563
:10093000279580E12030380720F0DD2011F0DD24FC
:10094000D6CFE889F9893083EA89FB89208319A207
:10095000EE89FF89408121E030E0C9010C8C02C0A2
:10096000880F991F0A94E2F7482B4083EE89FF898C
:100970004081C9010D8C02C0880F991F0A94E2F7CB
:10098000482B4083EE89FF894081C9010E8C02C04B
:10099000880F991F0A94E2F7482B4083EE89FF895C
:1009A00080810F8C02C0220F331F0A94E2F720953A
:1009B00028232083DF91CF911F910F91FF90EF901B
:1009C000DF90BF90AF900895DC011C96ED91FC91F3
:1009D0001D97E05CFF4F8191919120813181805C76
:1009E0009F4F821B930B60E470E00E94C10C08953E
:1009F000DC011C96ED91FC911D97E05CFF4F20817E
:100A00003181E054F040DF01AE5BBF4F8D919C918E
:100A100011972817390719F42FEF3FEF07C08D9171
:100A20009C91E80FF91F8081282F30E0C9010895BB
:100A3000DC011C96ED91FC911D97E05CFF4F20813D
:100A40003181E054F040DF01AE5BBF4F8D919C914E
:100A500011972817390719F42FEF3FEF10C08D9128
:100A60009C911197E80FF91F20818D919C9111970E
:100A700001968F73907011969C938E9330E0C9010C
:100A80000895DC0191968C919197882339F05496C2
:100A9000ED91FC915597808186FFF9CF91961C923C
:100AA0000895CF93DF93EC01EE85FF85E05CFF4F67
:100AB00020813181E054F0402F5F3F4F2F73307021
:100AC000DF01AE5BBF4F8D919C91119728173907BD
:100AD000D1F3E05CFF4F80819181E054F040E80F5A
:100AE000F91F6083EE85FF85E05CFF4F3183208333
:100AF000EE89FF89208181E090E00F8C02C0880F91
:100B0000991F0A94E2F7282B208381E089A3EC89BE
:100B1000FD8980818064808381E090E0DF91CF91C6
:100B200008951F93109247041092460428EE33E074
:100B300040E050E0209348043093490440934A0435
:100B400050934B046CE072E070934504609344044E
:100B500084E292E0909351048093500488E692E0FE
:100B6000909353048093520485EC90E09093550445
:100B70008093540484EC90E090935704809356043F
:100B800080EC90E0909359048093580481EC90E0BD
:100B900090935B0480935A0482EC90E090935D0400
:100BA00080935C0486EC90E090935F0480935E04F5
:100BB00014E010936004B3E0B0936104A7E0A09345
:100BC0006204F5E0F0936304E1E0E09364041092C2
:100BD00069041092680420936A0430936B04409374
:100BE0006C0450936D0470936704609366048CEA00
:100BF00092E0909373048093720480EF92E090935C
:100C00007504809374048DEC90E090937704809346
:100C100076048CEC90E0909379048093780488ECCF
:100C200090E090937B0480937A0489EC90E0909319
:100C30007D0480937C048AEC90E090937F04809301
:100C40007E048EEC90E09093810480938004109356
:100C50008204B0938304A0938404F0938504E0930A
:100C6000860410928B0410928A0420938C04309393
:100C70008D0440938E0450938F0470938904609385
:100C8000880484E393E0909395048093940488E728
:100C900093E0909397048093960485ED90E0909371
:100CA00099048093980484ED90E090939B04809342
:100CB0009A0480ED90E090939D0480939C0481EDD4
:100CC00090E090939F0480939E0482ED90E0909337
:100CD000A1048093A00486ED90E09093A3048093F8
:100CE000A2041093A404B093A504A093A604F093C7
:100CF000A704E093A8041092AD041092AC042093D2
:100D0000AE043093AF044093B0045093B104709399
:100D1000AB046093AA048CEB93E09093B7048093A8
:100D2000B60480E094E09093B9048093B80485E31E
:100D300091E09093BB048093BA0484E391E0909394
:100D4000BD048093BC0480E391E09093BF04809342
:100D5000BE0481E391E09093C1048093C00482E3D8
:100D600091E09093C3048093C20486E391E0909352
:100D7000C5048093C4041093C604B093C704A09321
:100D8000C804F093C904E093CA041F9108950F9317
:100D9000FC018CE192E0918380836283438324830E
:100DA00005830F9108958CE192E09093CD04809398
:100DB000CC041092CE041092CF041092D004109262
:100DC000D1040895A0E0B0E0E8EEF6E00C94FC0C4D
:100DD0004C016B017C01AA24BB24C0E0D0E0C60119
:100DE000F70162814AE050E00E94F1078C01C601E0
:100DF0006EE20E943A07080F191FA00EB11E21963D
:100E00000894E11CF11CC330D10549F7C601F40177
:100E100065814AE050E00E94F1079501280F391FD3
:100E2000C901CDB7DEB7ECE00C94180DA0E0B0E03E
:100E3000ECE1F7E00C94000D7C016B018A01C0E04D
:100E4000D0E00FC0D6016D916D01D701ED91FC91FD
:100E50000190F081E02DC7011995C80FD91F0150ED
:100E600010400115110571F7CE01CDB7DEB7E8E0EE
:100E70000C941C0DDC01ED91FC910190F081E02DB2
:100E800019950895EF92FF920F931F938C01DC0147
:100E9000ED91FC910190F081E02D6DE019957C01C0
:100EA000D801ED91FC910190F081E02DC8016AE03C
:100EB00019959C012E0D3F1DC9011F910F91FF90A7
:100EC000EF900895CF93DF93EC016115710519F44C
:100ED00020E030E00FC0DB010D900020E9F7119712
:100EE000A61BB70BE881F9810280F381E02DAD01EB
:100EF00019959C01C901DF91CF9108954F925F929E
:100F00007F928F929F92AF92BF92CF92DF92EF9299
:100F1000FF920F931F93DF93CF93CDB7DEB7A197C7
:100F20000FB6F894DEBF0FBECDBF2C01742ECB01DF
:100F3000223008F42AE019A231E2C32ED12CCC0EC3
:100F4000DD1E822E9924AA24BB24672D752FA501AE
:100F500094010E94D40C79018A01C801B701A5014E
:100F600094010E94A20C472D461B0894C108D10889
:100F70004A3014F4405D01C0495CF6014083E1143D
:100F8000F1040105110521F07E2C5F2DC801DDCF94
:100F9000C201B6010E946207A1960FB6F894DEBFA7
:100FA0000FBECDBFCF91DF911F910F91FF90EF90BA
:100FB000DF90CF90BF90AF909F908F907F905F9089
:100FC0004F900895DC012115310541F4ED91FC911C
:100FD0000190F081E02D642F199508950E947E07FD
:100FE0000895EF92FF920F931F939A01E62EFF242C
:100FF00000E010E0B801A7010E94E2071F910F91E5
:10100000FF90EF900895A0E0B0E0E9E0F8E00C94E4
:10101000000DEC016A017B012115310541F4E881E5
:10102000F9810190F081E02D642F19951FC02A30BD
:101030003105D1F477FF17C0E881F9810190F08183
:10104000E02D6DE219958C0144275527BA014C1902
:101050005D096E097F09CE012AE00E947E07980192
:10106000280F391F04C02AE00E947E079C01C90195
:10107000CDB7DEB7E8E00C941C0DEF92FF920F9312
:101080001F937B019A010027F7FC0095102FB801F0
:10109000A7010E9403081F910F91FF90EF90089500
:1010A000CF92DF92EF92FF920F931F936C017B011F
:1010B0009A010027F7FC0095102FB801A7010E94A4
:1010C00003088C01C6010E944207080F191FC801BE
:1010D0001F910F91FF90EF90DF90CF9008950E94A5
:1010E00062070895CF93DF93EC010E94B30A6887EB
:1010F00079878A879B87E881F9810084F185E02DD3
:10110000CE0119959C0197FF15C00E94B30A28854E
:1011100039854A855B85621B730B840B950B2C818B
:101120003D814E815F81621773078407950718F32D
:101130002FEF3FEFC901DF91CF910895CF93DF9358
:10114000EC01CE010E9472089C0197FD0EC08D3209
:10115000910559F0C0970A9740F0E881F98106801F
:10116000F781E02DCE011995ECCFC901DF91CF9128
:101170000895A0E0B0E0EFEBF8E00C94FD0C6C01FA
:10118000B62E0E949E08EC0197FF04C0EE24FF24B7
:1011900087014CC09924EE24FF248701AB2CBB248B
:1011A000A7FCB094CA15DB0529F1CD32D10519F49D
:1011B000992493941FC0CE01C0970A97D8F4C80110
:1011C000B7012AE030E040E050E00E94A20C7B0131
:1011D0008C01CE01AA2797FDA095BA2FE80EF91E23
:1011E0000A1F1B1F80ED9FEFAFEFBFEFE80EF91E48
:1011F0000A1F1B1FD601ED91FC910680F781E02D9F
:10120000C6011995C6010E947208EC01C0970A97A1
:1012100048F2CA15DB0531F2992041F0109500958E
:10122000F094E094E11CF11C011D111DB701C801EF
:10123000CDB7DEB7EBE00C94190D61E00E94B90860
:1012400008950F931F93CF93DF93BC0182309105D4
:1012500010F462E070E0E091DD04F091DE0440E023
:1012600050E0A0E0B0E024C080819181861797070C
:10127000D0F08617970771F482819381109729F037
:1012800013969C938E9312972CC09093DE048093B8
:10129000DD0427C04115510519F08417950718F48E
:1012A0008D01AC01EF01DF01828193819C01F90185
:1012B0003097D1F641155105F9F0CA01861B970BFD
:1012C0008430910580F48A819B810115110521F0FC
:1012D000F8019383828304C09093DE048093DD043D
:1012E000FE01329645C0FE01E80FF91F619371932C
:1012F0000297998388833CC08091DB049091DC0441
:10130000892B41F480910402909105029093DC04B2
:101310008093DB044091060250910702411551056C
:1013200041F44DB75EB78091020290910302481BD1
:10133000590B2091DB043091DC0424173507B0F4FD
:10134000CA01821B930B8617970780F0AB014E5F93
:101350005F4F8417950750F0420F531F5093DC04E2
:101360004093DB04F9016193719302C0E0E0F0E087
:10137000CF01DF91CF911F910F910895CF93DF930C
:101380009C01009709F48FC0EC0122971B821A82FE
:101390006091DD047091DE046115710581F488812E
:1013A0009981820F931F2091DB043091DC04281770
:1013B000390739F5D093DC04C093DB0474C0DB013A
:1013C00040E050E0AC17BD0708F1BB83AA83FE01E3
:1013D00021913191E20FF31FAE17BF0779F48D9180
:1013E0009C911197280F391F2E5F3F4F3983288317
:1013F00012968D919C9113979B838A834115510579
:1014000071F4D093DE04C093DD044DC012968D912B
:101410009C911397AD01009711F0DC01D3CFDA0155
:101420001396DC93CE931297FA0121913191E20F3A
:10143000F31FCE17DF0769F488819981280F391FC0
:101440002E5F3F4FFA01318320838A819B819383F2
:101450008283E0E0F0E0DB0112968D919C9113977E
:10146000009719F0BC01FD01F6CFAB014E5F5F4F55
:10147000DB018D919C91840F951F2091DB043091AD
:10148000DC042817390779F4309729F41092DE0428
:101490001092DD0402C013821282425050405093D9
:1014A000DC044093DB04DF91CF9108950895CF933E
:1014B000DF930E94C10A0E94560A0E946101C8E09F
:1014C000D3E00E948D012097E1F30E940803F9CF39
:1014D0000E94210908951F920F920FB60F921124B6
:1014E0002F933F938F939F93AF93BF938091D60495
:1014F0009091D704A091D804B091D9043091DA0426
:101500000196A11DB11D232F2D5F2D3720F02D57E2
:101510000196A11DB11D2093DA048093D604909307
:10152000D704A093D804B093D9048091D2049091A9
:10153000D304A091D404B091D5040196A11DB11D8E
:101540008093D2049093D304A093D404B093D50491
:10155000BF91AF919F918F913F912F910F900FBEAF
:101560000F901F9018958FB7F8942091D604309162
:10157000D7044091D8045091D9048FBFB901CA0152
:101580000895789484B5826084BD84B5816084BDFB
:1015900085B5826085BD85B5816085BDEEE6F0E0EC
:1015A000808181608083E1E8F0E010828081826048
:1015B0008083808181608083E0E8F0E080818160C9
:1015C0008083E1EBF0E0808184608083E0EBF0E0F9
:1015D000808181608083E1E9F0E0808182608083A6
:1015E000808181608083E0E9F0E080818160808398
:1015F000E1EAF0E080818260808380818160808385
:10160000E0EAF0E0808181608083E1E2F1E08081C6
:1016100082608083808181608083E0E2F1E080816C
:1016200081608083EAE7F0E080818460808380814C
:1016300082608083808181608083808180688083F4
:101640001092C10008951F93CF93DF93182FEB01E1
:1016500061E00E94DE0B209709F4A5C0CF3FD105C1
:1016600009F4A4C0E12FF0E0EE5FFD4FE4918E2F6E
:1016700090E0FC013197E131F10508F091C0EE589E
:10168000FF4F0C942D0D84B5806884BDC7BD92C0FA
:1016900084B5806284BDC8BD8DC0809180008068A3
:1016A00080938000D0938900C093880083C080918C
:1016B0008000806280938000D0938B00C0938A006A
:1016C00079C08091B00080688093B000C093B3006F
:1016D00071C08091B00080628093B000C093B4006C
:1016E00069C080919000806880939000D0939900A9
:1016F000C09398005FC080919000806280939000BA
:10170000D0939B00C0939A0055C080919000886050
:1017100080939000D0939D00C0939C004BC080911B
:10172000A00080688093A0008091A0008F7B8093B0
:10173000A000D093A900C093A8003CC08091A00055
:1017400080628093A000D093AB00C093AA0032C007
:101750008091A00088608093A000D093AD00C093DA
:10176000AC0028C080912001806880932001D09334
:101770002901C09328011EC08091200180628093BE
:101780002001D0932B01C0932A0114C08091200125
:10179000886080932001D0932D01C0932C010AC052
:1017A000C038D1051CF4812F60E002C0812F61E0B8
:1017B0000E946F0CDF91CF911F910895CF93DF931B
:1017C000482F50E0CA0184549E4FFC0134914A587E
:1017D0005E4FFA018491882369F190E0880F991F88
:1017E000FC01E85DFE4FA591B491FC01EE5BFE4F5C
:1017F000C591D491662351F42FB7F8948C91932F0F
:10180000909589238C93888189230BC0623061F481
:101810002FB7F8948C91932F909589238C9388817E
:10182000832B88832FBF06C09FB7F8948C91832B9E
:101830008C939FBFDF91CF91089590E0FC01319789
:10184000E131F10508F04AC0ED57FF4F0C942D0D22
:10185000809180008F7703C0809180008F7D80937E
:101860008000089584B58F7702C084B58F7D84BDD4
:1018700008958091B0008F7703C08091B0008F7D74
:101880008093B0000895809190008F7707C0809179
:1018900090008F7D03C080919000877F809390009F
:1018A00008958091A0008F7707C08091A0008F7D60
:1018B00003C08091A000877F8093A000089580914D
:1018C00020018F7703C0809120018F7D80932001BC
:1018D000089580912001877F809320010895FF92D1
:1018E0000F931F93F62E482F50E0CA018E5F9D4F35
:1018F000FC012491CA0184549E4FFC0114914A5862
:101900005E4FFA0104910023C9F0222319F0822FBF
:101910000E941D0CE02FF0E0EE0FFF1FEE5BFE4F6C
:10192000A591B4919FB7F894FF2021F48C91109564
:10193000812302C08C91812B8C939FBF1F910F91AB
:10194000FF900895629FD001739FF001829FE00D88
:10195000F11D649FE00DF11D929FF00D839FF00D2E
:10196000749FF00D659FF00D9927729FB00DE11DDA
:10197000F91F639FB00DE11DF91FBD01CF011124B7
:10198000089597FB092E07260AD077FD04D06BD067
:1019900006D000201AF4709561957F4F0895F6F7F0
:1019A000909581959F4F0895A1E21A2EAA1BBB1B0B
:1019B000FD010DC0AA1FBB1FEE1FFF1FA217B3071B
:1019C000E407F50720F0A21BB30BE40BF50B661F31
:1019D000771F881F991F1A9469F7609570958095F5
:1019E00090959B01AC01BD01CF0108952F923F92CC
:1019F0004F925F926F927F928F929F92AF92BF921F
:101A0000CF92DF92EF92FF920F931F93CF93DF93CA
:101A1000CDB7DEB7CA1BDB0B0FB6F894DEBF0FBE27
:101A2000CDBF19942A88398848885F846E847D8464
:101A30008C849B84AA84B984C884DF80EE80FD8076
:101A40000C811B81AA81B981CE0FD11D0FB6F894EC
:101A5000DEBF0FBECDBFED010895EE0FFF1F059055
:101A6000F491E02D1994AA1BBB1B51E107C0AA1FDA
:101A7000BB1FA617B70710F0A61BB70B881F991F2F
:101A80005A95A9F780959095BC01CD010895F894D9
:021A9000FFCF86
:101A920020008000DF04000000000000510516074E
:0E1AA200E4041805F804410500000000E20607
:00000001FF
